{
  "contractName": "Election",
  "abi": [
    {
      "inputs": [],
      "stateMutability": "nonpayable",
      "type": "constructor"
    },
    {
      "anonymous": false,
      "inputs": [
        {
          "indexed": false,
          "internalType": "uint256",
          "name": "id",
          "type": "uint256"
        },
        {
          "indexed": false,
          "internalType": "string",
          "name": "name",
          "type": "string"
        },
        {
          "indexed": false,
          "internalType": "uint256",
          "name": "voteCount",
          "type": "uint256"
        }
      ],
      "name": "electionUpdate",
      "type": "event"
    },
    {
      "inputs": [],
      "name": "candidateCount",
      "outputs": [
        {
          "internalType": "uint256",
          "name": "",
          "type": "uint256"
        }
      ],
      "stateMutability": "view",
      "type": "function",
      "constant": true
    },
    {
      "inputs": [
        {
          "internalType": "uint256",
          "name": "",
          "type": "uint256"
        }
      ],
      "name": "candidates",
      "outputs": [
        {
          "internalType": "uint256",
          "name": "id",
          "type": "uint256"
        },
        {
          "internalType": "string",
          "name": "name",
          "type": "string"
        },
        {
          "internalType": "uint256",
          "name": "voteCount",
          "type": "uint256"
        }
      ],
      "stateMutability": "view",
      "type": "function",
      "constant": true
    },
    {
      "inputs": [
        {
          "internalType": "address",
          "name": "",
          "type": "address"
        }
      ],
      "name": "votedOrNot",
      "outputs": [
        {
          "internalType": "bool",
          "name": "",
          "type": "bool"
        }
      ],
      "stateMutability": "view",
      "type": "function",
      "constant": true
    },
    {
      "inputs": [
        {
          "internalType": "uint256",
          "name": "_id",
          "type": "uint256"
        }
      ],
      "name": "Vote",
      "outputs": [],
      "stateMutability": "nonpayable",
      "type": "function"
    }
  ],
  "bytecode": "0x608060405234801561001057600080fd5b506100556040518060400160405280600d81526020017f4e6172656e647261204d6f64690000000000000000000000000000000000000081525061009e60201b60201c565b6100996040518060400160405280600e81526020017f4d616d74612042616e65726a656500000000000000000000000000000000000081525061009e60201b60201c565b6101b5565b60008081548092919060010191905055506040518060600160405280600054815260200182815260200160008152506001600080548152602001908152602001600020600082015181600001556020820151816001019080519060200190610107929190610118565b506040820151816002015590505050565b828054600181600116156101000203166002900490600052602060002090601f016020900481019282601f1061015957805160ff1916838001178555610187565b82800160010185558215610187579182015b8281111561018657825182559160200191906001019061016b565b5b5090506101949190610198565b5090565b5b808211156101b1576000816000905550600101610199565b5090565b61058f806101c46000396000f3fe608060405234801561001057600080fd5b506004361061004c5760003560e01c80633477ee2e14610051578063a9a981a314610106578063ca020d1414610124578063dcd6a5cd1461017e575b600080fd5b61007d6004803603602081101561006757600080fd5b81019080803590602001909291905050506101ac565b6040518084815260200180602001838152602001828103825284818151815260200191508051906020019080838360005b838110156100c95780820151818401526020810190506100ae565b50505050905090810190601f1680156100f65780820380516001836020036101000a031916815260200191505b5094505050505060405180910390f35b61010e61026e565b6040518082815260200191505060405180910390f35b6101666004803603602081101561013a57600080fd5b81019080803573ffffffffffffffffffffffffffffffffffffffff169060200190929190505050610274565b60405180821515815260200191505060405180910390f35b6101aa6004803603602081101561019457600080fd5b8101908080359060200190929190505050610294565b005b6001602052806000526040600020600091509050806000015490806001018054600181600116156101000203166002900480601f01602080910402602001604051908101604052809291908181526020018280546001816001161561010002031660029004801561025e5780601f106102335761010080835404028352916020019161025e565b820191906000526020600020905b81548152906001019060200180831161024157829003601f168201915b5050505050908060020154905083565b60005481565b60026020528060005260406000206000915054906101000a900460ff1681565b600260003373ffffffffffffffffffffffffffffffffffffffff1673ffffffffffffffffffffffffffffffffffffffff16815260200190815260200160002060009054906101000a900460ff1615610337576040517f08c379a00000000000000000000000000000000000000000000000000000000081526004018080602001828103825260228152602001806105386022913960400191505060405180910390fd5b6000600160008381526020019081526020016000206000015414156103c4576040517f08c379a00000000000000000000000000000000000000000000000000000000081526004018080602001828103825260118152602001807f494420646f65736e27742065786973742100000000000000000000000000000081525060200191505060405180910390fd5b6001806000838152602001908152602001600020600201600082825401925050819055506000600260003373ffffffffffffffffffffffffffffffffffffffff1673ffffffffffffffffffffffffffffffffffffffff16815260200190815260200160002060006101000a81548160ff0219169083151502179055507f523108b00f11d4cb164fec20a7d91695c7c58e86ff5bf8afe194d97650811b108160016000848152602001908152602001600020600101600160008581526020019081526020016000206002015460405180848152602001806020018381526020018281038252848181546001816001161561010002031660029004815260200191508054600181600116156101000203166002900480156105245780601f106104f957610100808354040283529160200191610524565b820191906000526020600020905b81548152906001019060200180831161050757829003601f168201915b505094505050505060405180910390a15056fe596f75206861766520616c72656164792063617374656420796f757220766f746521a26469706673582212202fc6ab91f22d7bcf3cd12b5cae938815f53cd817b523f37540b194c9cf20a95764736f6c63430007000033",
  "immutableReferences": {},
  "source": "// SPDX-License-Identifier: GPL-3.0\r\n\r\npragma solidity >= 0.5.0 <= 0.9.0 ;\r\n\r\ncontract Election {\r\n    \r\n    // struct candidate\r\n    struct Candidate {\r\n        uint id ;\r\n        string name ;\r\n        uint voteCount ;\r\n    }\r\n    \r\n    // candidate count\r\n    uint public candidateCount ;\r\n\r\n    // mapping to access each candidate\r\n    mapping( uint => Candidate ) public candidates ;\r\n    \r\n    // mapping to identify that person hasn't voted again\r\n    mapping( address => bool ) public votedOrNot ;\r\n\r\n    // constructor\r\n    constructor() {\r\n        addCandidate( \"Narendra Modi\" ) ;\r\n        addCandidate( \"Mamta Banerjee\" ) ;\r\n    }\r\n    \r\n    // event to be shown in ui\r\n    event electionUpdate( uint id , string name , uint voteCount ) ;\r\n    \r\n    // add candidates\r\n    function addCandidate( string memory name ) private {\r\n        candidateCount++ ;\r\n        candidates[ candidateCount ] = Candidate( candidateCount , name , 0 ) ;\r\n    }\r\n    \r\n    // cast vote\r\n    function Vote( uint _id ) public {\r\n        \r\n        // if the condition is not met then 2nd parameter will be shown\r\n        require( !votedOrNot[ msg.sender ] , \"You have already casted your vote!\" ) ;\r\n    \r\n        // if the condition is not met then 2nd parameter will be shown\r\n        require( candidates[ _id ].id != 0 , \"ID doesn't exist!\" ) ;\r\n        \r\n        // increase the voteCount of the candidate and set it to false\r\n        candidates[ _id ].voteCount += 1 ;\r\n        votedOrNot[ msg.sender ] = false ;\r\n        \r\n        // emit the event\r\n        emit electionUpdate( _id , candidates[ _id ].name , candidates[ _id ].voteCount ) ; \r\n    }\r\n}",
  "sourcePath": "M:\\blockchain\\projects\\03_election_dapp\\contracts\\Election.sol",
  "compiler": {
    "name": "solc",
    "version": "0.7.0+commit.9e61f92b.Emscripten.clang"
  },
  "schemaVersion": "3.4.3",
  "updatedAt": "2021-09-25T15:45:13.725Z",
  "networkType": "ethereum",
  "devdoc": {
    "kind": "dev",
    "methods": {},
    "version": 1
  },
  "userdoc": {
    "kind": "user",
    "methods": {},
    "version": 1
  }
}